{
  "contractName": "OreOreCoin",
  "abi": [
    {
      "constant": true,
      "inputs": [],
      "name": "name",
      "outputs": [
        {
          "name": "",
          "type": "string"
        }
      ],
      "payable": false,
      "stateMutability": "view",
      "type": "function"
    },
    {
      "constant": true,
      "inputs": [],
      "name": "totalSupply",
      "outputs": [
        {
          "name": "",
          "type": "uint256"
        }
      ],
      "payable": false,
      "stateMutability": "view",
      "type": "function"
    },
    {
      "constant": true,
      "inputs": [],
      "name": "decimals",
      "outputs": [
        {
          "name": "",
          "type": "uint8"
        }
      ],
      "payable": false,
      "stateMutability": "view",
      "type": "function"
    },
    {
      "constant": true,
      "inputs": [
        {
          "name": "",
          "type": "address"
        }
      ],
      "name": "balanceOf",
      "outputs": [
        {
          "name": "",
          "type": "uint256"
        }
      ],
      "payable": false,
      "stateMutability": "view",
      "type": "function"
    },
    {
      "constant": true,
      "inputs": [],
      "name": "symbol",
      "outputs": [
        {
          "name": "",
          "type": "string"
        }
      ],
      "payable": false,
      "stateMutability": "view",
      "type": "function"
    },
    {
      "inputs": [
        {
          "name": "_supply",
          "type": "uint256"
        },
        {
          "name": "_name",
          "type": "string"
        },
        {
          "name": "_symbol",
          "type": "string"
        },
        {
          "name": "_decimals",
          "type": "uint8"
        }
      ],
      "payable": false,
      "stateMutability": "nonpayable",
      "type": "constructor"
    },
    {
      "anonymous": false,
      "inputs": [
        {
          "indexed": true,
          "name": "from",
          "type": "address"
        },
        {
          "indexed": true,
          "name": "to",
          "type": "address"
        },
        {
          "indexed": false,
          "name": "value",
          "type": "uint256"
        }
      ],
      "name": "Transfer",
      "type": "event"
    },
    {
      "constant": false,
      "inputs": [
        {
          "name": "_to",
          "type": "address"
        },
        {
          "name": "_value",
          "type": "uint256"
        }
      ],
      "name": "transafer",
      "outputs": [],
      "payable": false,
      "stateMutability": "nonpayable",
      "type": "function"
    }
  ],
  "bytecode": "0x608060405234801561001057600080fd5b506040516107b73803806107b78339810180604052810190808051906020019092919080518201929190602001805182019291906020018051906020019092919050505083600460003373ffffffffffffffffffffffffffffffffffffffff1673ffffffffffffffffffffffffffffffffffffffff1681526020019081526020016000208190555082600090805190602001906100ae9291906100f1565b5081600190805190602001906100c59291906100f1565b5080600260006101000a81548160ff021916908360ff1602179055508360038190555050505050610196565b828054600181600116156101000203166002900490600052602060002090601f016020900481019282601f1061013257805160ff1916838001178555610160565b82800160010185558215610160579182015b8281111561015f578251825591602001919060010190610144565b5b50905061016d9190610171565b5090565b61019391905b8082111561018f576000816000905550600101610177565b5090565b90565b610612806101a56000396000f300608060405260043610610078576000357c0100000000000000000000000000000000000000000000000000000000900463ffffffff16806306fdde031461007d5780630d0bbf4f1461010d57806318160ddd1461015a578063313ce5671461018557806370a08231146101b657806395d89b411461020d575b600080fd5b34801561008957600080fd5b5061009261029d565b6040518080602001828103825283818151815260200191508051906020019080838360005b838110156100d25780820151818401526020810190506100b7565b50505050905090810190601f1680156100ff5780820380516001836020036101000a031916815260200191505b509250505060405180910390f35b34801561011957600080fd5b50610158600480360381019080803573ffffffffffffffffffffffffffffffffffffffff1690602001909291908035906020019092919050505061033b565b005b34801561016657600080fd5b5061016f610517565b6040518082815260200191505060405180910390f35b34801561019157600080fd5b5061019a61051d565b604051808260ff1660ff16815260200191505060405180910390f35b3480156101c257600080fd5b506101f7600480360381019080803573ffffffffffffffffffffffffffffffffffffffff169060200190929190505050610530565b6040518082815260200191505060405180910390f35b34801561021957600080fd5b50610222610548565b6040518080602001828103825283818151815260200191508051906020019080838360005b83811015610262578082015181840152602081019050610247565b50505050905090810190601f16801561028f5780820380516001836020036101000a031916815260200191505b509250505060405180910390f35b60008054600181600116156101000203166002900480601f0160208091040260200160405190810160405280929190818152602001828054600181600116156101000203166002900480156103335780601f1061030857610100808354040283529160200191610333565b820191906000526020600020905b81548152906001019060200180831161031657829003601f168201915b505050505081565b80600460003373ffffffffffffffffffffffffffffffffffffffff1673ffffffffffffffffffffffffffffffffffffffff16815260200190815260200160002054101561038757600080fd5b600460008373ffffffffffffffffffffffffffffffffffffffff1673ffffffffffffffffffffffffffffffffffffffff1681526020019081526020016000205481600460008573ffffffffffffffffffffffffffffffffffffffff1673ffffffffffffffffffffffffffffffffffffffff1681526020019081526020016000205401101561041457600080fd5b80600460003373ffffffffffffffffffffffffffffffffffffffff1673ffffffffffffffffffffffffffffffffffffffff1681526020019081526020016000206000828254039250508190555080600460008473ffffffffffffffffffffffffffffffffffffffff1673ffffffffffffffffffffffffffffffffffffffff168152602001908152602001600020600082825401925050819055508173ffffffffffffffffffffffffffffffffffffffff163373ffffffffffffffffffffffffffffffffffffffff167fddf252ad1be2c89b69c2b068fc378daa952ba7f163c4a11628f55a4df523b3ef836040518082815260200191505060405180910390a35050565b60035481565b600260009054906101000a900460ff1681565b60046020528060005260406000206000915090505481565b60018054600181600116156101000203166002900480601f0160208091040260200160405190810160405280929190818152602001828054600181600116156101000203166002900480156105de5780601f106105b3576101008083540402835291602001916105de565b820191906000526020600020905b8154815290600101906020018083116105c157829003601f168201915b5050505050815600a165627a7a723058207f890324eb2fbf9ef4aa5106113ea948c86f20cea54d036a530e1243e81cdbb70029",
  "source": "pragma solidity ^0.4.24;\r\n\r\ncontract OreOreCoin {\r\n    string public name;\r\n    string public symbol;\r\n    uint8 public decimals;\r\n    uint256 public totalSupply;\r\n    mapping (address => uint256) public balanceOf;\r\n\r\n    event Transfer(address indexed from, address indexed to, uint256 value);\r\n\r\n    constructor(uint256 _supply, string _name, string _symbol, uint8 _decimals) public {\r\n        balanceOf[msg.sender] = _supply;\r\n        name = _name;\r\n        symbol = _symbol;\r\n        decimals = _decimals;\r\n        totalSupply = _supply;\r\n    }\r\n\r\n    function transafer(address _to, uint256 _value) public {\r\n        if (balanceOf[msg.sender] < _value) revert();\r\n        if (balanceOf[_to] + _value < balanceOf[_to]) revert();\r\n\r\n        balanceOf[msg.sender] -= _value;\r\n        balanceOf[_to] += _value;\r\n\r\n        emit Transfer(msg.sender, _to, _value);\r\n    }\r\n}",
  "sourcePath": "/vagrant/trufflepj/OreOreCoin/contracts/OreOreCoin.sol",
  "compiler": {
    "name": "solc",
    "version": "0.4.24+commit.e67f0147.Emscripten.clang"
  },
  "schemaVersion": "2.0.1",
  "updatedAt": "2018-07-05T04:34:36.542Z"
}